:020000040800F2
:10000000C806002001010008B33600084522000898
:10001000AF36000871190008E93F00080000000031
:10002000000000000000000000000000293A000865
:100030007519000800000000393700084D3B000822
:100040001B0100081B0100081B0100081B01000820
:100050001B0100081B0100081B0100081B01000810
:100060001B0100081B0100081B0100081B01000800
:100070001B0100081B0100081B0100081B010008F0
:100080001B0100081B0100081B0100081B010008E0
:100090001B0100081B0100081B0100081B010008D0
:1000A0001B0100081B0100081B0100081B010008C0
:1000B0001B010008BD3B00081B0100081B010008D4
:1000C0001B0100081B0100081B0100081B010008A0
:1000D0001B010008BD3D0008D93D00081B010008B8
:1000E0001B0100081B0100081B010008DFF80CD0F1
:1000F00000F03CFE00480047C14E0008C806002042
:100100000648804706480047FEE7FEE7FEE7FEE7B1
:10011000FEE7FEE7FEE7FEE7FEE7FEE7513B0008ED
:10012000ED000008A0F14101192900D820307047E6
:1001300040EA01039B0703D009E008C9121F08C069
:10014000042AFAD203E011F8013B00F8013B521EE9
:10015000F9D27047D2B201E000F8012B491EFBD260
:1001600070470022F6E710B513460A4604461946C2
:10017000FFF7F0FF204610BD30B505462A460B4676
:1001800012F8010B13F8014B08B1A042F8D01CB1D2
:10019000002802D06D1CF1E7284630BDCAB2401ECF
:1001A00010F8011F8A4202D00029F9D100207047BF
:1001B000421C10F8011B0029FBD1801A704710B5B2
:1001C000002200E0521C835C8C5CA34201D1002B16
:1001D000F8D1D8B2E1B2401A10BD10B5044600E023
:1001E000401C0378002BFBD100E0401C521E04D3BE
:1001F00011F8013B0370002BF7D10021017020465C
:1002000010BD30B505460020034600E05B1C93425C
:1002100005D2EC5CC85C201A01D1002CF6D130BDAF
:100220002DE9FF4F087883B09946FF2805D0491C77
:100230002D2804D00024002008E000200BE0012439
:10024000F9E700EB800003EB4000491C0B78FF2B23
:10025000F7D104B1404200230293147819461D4699
:100260002D2C01D02B2C04D1521C2D2C13D000246A
:100270000294AA461478FF2C0FD00A25A3FB057818
:1002800001FB05814FF0000C03FB0C11521CE3191C
:100290004AEB0101EEE70124EAE7814453EA010059
:1002A00002D019F5C87F06DA03980021C0E90011D1
:1002B00007B0BDE8F08F0025AE4E2F46DFF8B882BC
:1002C000184600F02FFDCDE90001B9F1000002DA77
:1002D000C9F1000400E004460023A74A1AEB030B0F
:1002E00042EB045A12E0E00707D02A46334638466C
:1002F000414600F0F9F9074688462A46334610463B
:10030000194600F0F1F905460E466410002CEAD1BA
:10031000DDE90001B9F1000F5A46534606DA00F054
:1003200055FA3A46434600F051FA05E000F0DCF990
:100330003A46434600F0D8F9029A0AB181F00041EA
:10034000039AC2E90001B3E72DE9FF4F1F468DB0C4
:10035000D7E901464FF0FF382E2045464FF00009FF
:100360000B90B9696D1C0E988847396A8246884798
:100370000028F6D1BAF1FF3F0AD024F4D064002E51
:1003800011DDBAF12B0F08D0BAF12D0F0BD102E01D
:10039000404611B08DE744F48064B9696D1C0E9835
:1003A00088478246761E6946600501D52D2000E00B
:1003B0002B208DF8000001F1010B0DF1200809E060
:1003C000B9696D1C0E98884782460F9844F40074F2
:1003D000761E0560002E02DDBAF1300FF0D00B99C9
:1003E0008A453ED144F0800406E00F99681CA9F1CB
:1003F000010944F400740860B9696D1C761E0E98FA
:10040000884782463028F0D02BE00B998A4505D1E9
:10041000200603D444F08004761E18E0504604F011
:1004200021F808B30DF11301761E44F400748B45D6
:1004300008D2AAF130000BF8010B200607D5A9F16C
:10044000010003E0200602D409F101008146A00565
:1004500002D50F99681C0860B9696D1C0E98884711
:100460008246002ED1DC53E0002E51DDBAF1650F3B
:1004700002D0BAF1450F4BD1A00549D5B9696D1C21
:1004800024F44074761E0E9888478246002E0CDDB8
:100490002B2804D0BAF12D0F07D144F48074B96928
:1004A0006D1C0E9888478246761EE00501D52D21E9
:1004B00000E02B2108F8011BCDF82C8021E00DF184
:1004C0002901761E44F4007488450CD2AAF130004C
:1004D00010F0FF0088F8000002D10B99884509D977
:1004E00008F1010806E0E00501D5244801E042F2E8
:1004F0000F708146B9696D1C0E98884782460F9827
:100500000560002E04DD504603F0ACFF0028D6D174
:10051000F9690E988847FF208BF8000088F80000E2
:100520000020069007904B466A4608A906A8FFF7E8
:1005300077FEA00502D46FF001002AE714F0240F23
:100540000AD0E00714D1DDE906123868031D3B60CC
:100550000068C0E900120BE0DDE9060100F014FAC2
:100560000146E00704D13868021D3A600068016066
:1005700028460EE7000014400000F03FF1D8FFFFCE
:1005800070B5064603F042FE046805460A220021C3
:10059000304600F0FBFA2C6070BD2DE9FE4F80461E
:1005A00081EA0300C00F0C46009021F0004123F0C7
:1005B0000045B8EB0200A94105D2404621469046CD
:1005C0001C460B46024623F00040104347D0270D3F
:1005D000C7F30A00C3F30A510290401A0190402861
:1005E0006BDAC3F3130040F4801B0098924620B1ED
:1005F0000023D2EB030A63EB0B0B01985946C0F1C1
:100600004002504600F023FA06460D465046594631
:10061000019A00F03BFA10EB08006141002487EAE0
:10062000115284EAE7731A4340D0009A62B3019AE8
:10063000012A4FEA075215DC001B61EB02014FF063
:10064000004202EA0752CDE90042001C41F5801148
:1006500032462B4600F018FB03B0BDE8F08F404651
:100660002146F9E7001B61EB0201001C41F58013F4
:1006700000185B412018A2F5001747EB030140EA80
:10068000D570B6196D4111E06D084FEA360645EA9E
:10069000C0754FEA0752001B61EB0201001C41F5D7
:1006A000801149084FEA30000019514132462B466B
:1006B00003B0BDE8F04F00F0D8BA00980122400026
:1006C0000023D0EB020263EBE073009821464FEA6F
:1006D000E074B8EB000061EB0401E9E783F000434C
:1006E0005BE781F0004158E72DE9FE4F81EA030402
:1006F00004F0004421F0004100944FF0000B23F07F
:10070000004350EA01045ED052EA03045BD0C3F315
:100710000A54C1F30A552C44A4F2F3340194A0FB0B
:100720000254C1F3130141F48011C3F3130343F4E2
:10073000801301FB024400FB034E840A970A44EA3B
:10074000815447EA8357A4FB076802958D0A05FB8D
:1007500007854FEA932C04FB0C542705029D4FEAB2
:10076000065847EA1637B5EB08056EEB070C870EFF
:10077000920E47EA811742EA8312A7FB0201B6EB09
:100780000B0164EB00042B0D43EA0C335E1844EBC1
:100790001C50DA465146E7FB0201C5F313044FEA49
:1007A0000B3343EA14534FEA0432019C43EA060335
:1007B000A4F10C040294009CCDE900B400F064FAAA
:1007C00003B0BDE8F08F00200146F9E72DE9F04DB8
:1007D00081EA030404F0004B21F0004514464FF079
:1007E000000A23F0004150EA050220D054EA010239
:1007F0001DD0C5F30A570246C5F31303C1F3130016
:10080000C1F30A5640F4801543F48013A7EB0608A1
:10081000101BD64608F2FD3873EB050002D308F131
:10082000010801E092185B41B8F1000F03DA0020E3
:100830000146BDE8F08D00204FF480110646844645
:100840000EE0171B73EB050705D3121B63EB0503C3
:1008500006434CEA010C49084FEA300092185B410C
:1008600050EA0107EDD152EA030012D082EA0400F7
:1008700083EA0501084305D0101BAB4106D20122D3
:10088000002306E000224FF0004302E06FF0010277
:1008900053101AEB06004CEB085110EB0A0041EB29
:1008A0000B01BDE8F04D00F0E0B90EB540F2334168
:1008B00002910021CDE900110A460B4600F0E4F94F
:1008C00003B000BD70B5C1F30A5201F00045002429
:1008D000C1F3130140F2FF3341F480119A4201DA6F
:1008E000002070BD40F233439A42A2F2334203DC4F
:1008F000524200F0BBF800E090402C43F1D040425F
:1009000070BD00F0004230F000400AD0C10D01F58A
:100910006071C0F3160042EA0151C208400711435A
:10092000704700200146704730B5041E71F1000485
:1009300004DB4FF00044404264EB0101141E73F1EC
:10094000000405DB1C464FF00043524263EB0403F6
:100950008B4208BF824230BD30B5041E71F10004E5
:1009600004DB4FF00044404264EB0101141E73F1BC
:10097000000405DB1C464FF00043524263EB0403C6
:10098000994208BF904230BD01F0004330B421F0DD
:10099000004150EA010206D00A0DA2F56072C1F3CF
:1009A0001301002A02DC30BC00207047440F44EAE7
:1009B000C104C100E01830BC00EBC25000F01EB909
:1009C00030B50B46014600202022012409E021FA1F
:1009D00002F59D4205D303FA02F5491B04FA02F51C
:1009E0002844151EA2F10102F1DC30BD2DE9F05FB3
:1009F0000546002092469B4688460646814640248E
:100A00001BE0284641464746224600F02FF8534651
:100A10005A46C01A914110D311461846224600F09A
:100A200016F82D1A67EB01084F46224601200021D7
:100A300000F00DF817EB00094E41201EA4F101044F
:100A4000DFDC484631462A464346BDE8F09F202A6F
:100A500004DB203A00FA02F1002070479140C2F115
:100A6000200320FA03F3194390407047202A04DB47
:100A7000203A21FA02F00021704721FA02F3D04017
:100A8000C2F120029140084319467047202A06DB34
:100A9000CB17203A41FA02F043EAE07306E041FA4C
:100AA00002F3D040C2F1200291400843194670473A
:100AB000426842B1016811F8013B23B1521EC0E9FE
:100AC0000012184670470121C160881E70474268B5
:100AD0005AB1C368016843B983688B4205D0491E87
:100AE000521CC0E90012002070474FF0FF307047E1
:100AF0000FB4002300B589B00CA900910B996FF0D9
:100B00000042CB601E4B06931E4B07930423CDE996
:100B100001321D4A089202466B460020FFF714FC82
:100B200009B05DF814FB70B586B006464FF0FF3093
:100B30000091CDE90101002015460C460490324693
:100B4000694604A8FFF7D4FF02460498211825B18E
:100B500008B1084600E020462860049800280DD01F
:100B6000002A02DD0098884208D0081B0094CDE9D5
:100B700001043246694604A8FFF7BAFF06B070BD0B
:100B8000B10A0008CF0A0008990D00082DE9F047C6
:100B900091460F4680460446002614F8015B2DB1AD
:100BA00000F0F6F80068405DC007F6D12B2D02D0AA
:100BB0002D2D18D0641E4A463946204600F0F5F81F
:100BC00027B13968A14201D1C7F8008071054FF003
:100BD00002040BD54042002803DD03F017FB04603C
:100BE000A007BDE8F08746F48066E4E70028F8DA5D
:100BF00003F00CFB04606FF00040F2E70029A8BF8F
:100C00007047401C490008BF20F00100704710B435
:100C1000B0FA80FC00FA0CF050EA010404BF10BCEA
:100C2000704749B1CCF1200421FA04F411FA0CF117
:100C300018BF012121430843A3EB0C01CB1D4FEA50
:100C400000614FEA102042BF002010BC704700EB4B
:100C5000C35010440029A4BF10BC7047401C490079
:100C600008BF20F0010010BC704710B5141E73F1CE
:100C7000000408DA401C41F1000192185B411A435C
:100C800001D120F0010010BD2DE9F04D92469B46A8
:100C900011B1B1FA81F202E0B0FA80F2203290464E
:100CA000FFF7D5FE04460F4640EA0A0041EA0B0171
:100CB00053465A46084313D0114653EA010019D04F
:100CC000C8F140025046FFF7D1FE05460E46504699
:100CD00059464246FFF7BBFE084305D0012004E019
:100CE00020463946BDE8F08D0020054346EAE0760F
:100CF0002C4337430A986305E40AA0EB080000225E
:100D0000FD0A44EA47540A3002D500200146E9E7CB
:100D1000010510196941DDE9084500196941BDE87F
:100D2000F04DA2E70EB540F2334202920022CDE927
:100D300000221346FFF7A8FF03B000BDC1F30A521B
:100D4000C1F3130140F2FF3341F480119A4202DAF9
:100D500000200146704740F233439A42A2F23342E8
:100D600002DC5242FFF782BEFFF771BE064C074D10
:100D700006E0E06840F0010394E80700984710346B
:100D8000AC42F6D3FFF7B6F9786E0008986E00080B
:100D900000487047646D000810B50446FFF7F8FF7F
:100DA0000068005D00F0010010BD2DE9F05F824693
:100DB0000078002715468B460AF10104B946302811
:100DC00001D09DB113E014F8010B0127782803D05E
:100DD000582801D045B10AE00DB1102D07D10027E8
:100DE000102514F8010B02E0082500E00A25002672
:100DF000B0460EE005FB080005FB06F1012701EBFC
:100E000010461FFA80F8B6F5803F00D3B94614F8B3
:100E1000010B294600F018F80028EBDABBF1000FAF
:100E200005D00FB1641E00E05446CBF80040B9F184
:100E3000000F06D003F0EAF902210160C81EBDE8E8
:100E4000F09F48EA0640FAE73A2800D2303820F00E
:100E50002002412A01D3A2F13700884201D34FF08A
:100E6000FF30704700B587B001214FF4047002F0E5
:100E700081FC00208DF81B000820ADF8180006A9A1
:100E8000194800F08BFF194800F03EF84FF400407D
:100E900002F054FC002001908DF808008DF8090044
:100EA0004FF4602003900020049001208DF814007E
:100EB00001A90E4800F078F801210C4800F018F85C
:100EC0000A4800F0F5F800BF084800F062F8002872
:100ED000FAD1064800F0FCF800BF044800F042F8E0
:100EE0000028FAD107B000BD0010014000240140E5
:100EF00021B1826842F00102826003E0826822F040
:100F0000010282607047000010B504461248844216
:100F100008D10121401502F03DFC0021601502F0CE
:100F200039FC17E00D48844208D10121001502F078
:100F300031FC0021201502F02DFC0BE00848844212
:100F400008D10121C80302F025FC00214FF4004024
:100F500002F020FC10BD00000024014000280140E8
:100F6000003C0140014600208A6802F004020AB1F8
:100F7000012000E0002070470146C86C80B2704735
:100F80000246002013680B400BB1012000E0002056
:100F90007047014600208A6802F008020AB1012069
:100FA00000E000207047000030B50246002000231A
:100FB00050680F4C20400D790C6844EA052420430A
:100FC000506090680B4C2040D1E902542C434D797D
:100FD00044EA450420439060D06A20F470000C7C01
:100FE000641EE4B2234340EA0350D06230BD0000E7
:100FF000FFFEF0FFFDF7F1FFF0B504460D460020BF
:101000000021092D11DDE068A5F10A0606EB46076F
:10101000072606FA07F18843A5F10A0606EB4606FD
:1010200003FA06F10843E0600CE0206905EB450790
:10103000072606FA07F1884305EB450603FA06F191
:1010400008432061072A0FDA606B561E06EB8607FD
:101050001F2606FA07F18843561E06EB860605FA98
:1010600006F10843606322E00D2A0FDA206BD61FD9
:1010700006EB86071F2606FA07F18843D61F06EB04
:10108000860605FA06F10843206310E0E06AA2F143
:101090000D0606EB86071F2606FA07F18843A2F124
:1010A0000D0606EB860605FA06F10843E062F0BD80
:1010B000816841F008018160704721B1826842F483
:1010C000A002826003E0826822F4A002826070477E
:1010D000816841F0040181607047000030B58BB039
:1010E00000200790089009900A90012531A03CA3A8
:1010F00042A252490090524803F020F807A800216C
:1011000002910391CDE9041000912B0229A20191D3
:1011100033A13AA001F082FD002843D1089A91B290
:10112000079800F0F9FD4FF4967000F091FC04462A
:10113000002C33D0204602F05DFA02282ED1204642
:1011400002F028F9062823D2DFE800F003090E1385
:10115000181D3CA13A4802F0F1FF00251DE03EA118
:10116000374802F0EBFF18E042A1354802F0E6FFF5
:1011700013E049A1324802F0E1FF0EE04EA13048F1
:1011800002F0DCFF09E055A12D4802F0D7FF04E092
:101190005DA12B4802F0D2FF00BF00BF07A801F0FD
:1011A000A5FC03E05FA1264802F0C8FF28460BB06B
:1011B00030BD0000636166323265336138663633B4
:1011C0003536363331633135623837626631303720
:1011D00031646566396465666539666200000000E1
:1011E0005472616E73666F725F74657374266830D3
:1011F0006E6A61745764374F53000000464553418F
:101200003233344642445332347C736563757265BD
:101210006D6F64653D332C7369676E6D6574686FBF
:10122000643D686D6163736861312C74696D6573C9
:1012300074616D703D3738397C000000306E0008F5
:1012400000380140546970733A09C1ACBDD3B3C9C9
:10125000B9A60D0A000000005741524E3A09C1AC30
:10126000BDD3CAA7B0DCA3BAD0ADD2E9B4EDCEF3FA
:101270000D0A00005741524E3A09C1ACBDD3CAA76E
:10128000B0DCA3BAB7C7B7A8B5C4636C69656E74A0
:1012900069640D0A000000005741524E3A09C1AC82
:1012A000BDD3CAA7B0DCA3BAB7FECEF1C6F7CAA7B2
:1012B000B0DC0D0A000000005741524E3A09C1ACA3
:1012C000BDD3CAA7B0DCA3BAD3C3BBA7C3FBBBF2D1
:1012D000C3DCC2EBB4EDCEF30D0A00005741524E11
:1012E0003A09C1ACBDD3CAA7B0DCA3BAB7C7B7A887
:1012F000C1B4BDD328B1C8C8E7746F6B656EB7C7FA
:10130000B7A8290D0A0000004552523A09C1ACBDE8
:10131000D3CAA7B0DCA3BACEB4D6AAB4EDCEF30D2F
:101320000A0000005741524E3A094D5154545F5043
:1013300061636B6574436F6E6E65637420466169AB
:101340006C65640D0A00000070B504460026254651
:10135000AA8891B2286800F0DFFC642000F078FBD6
:101360000646304602F046F90D2807D109A10F487C
:1013700002F0E4FE00200E4908600AE00C48006814
:10138000401C0B49086008460AA10268074802F0A1
:10139000D5FE70BD546970733A0948656172744234
:1013A000656174206973204F4B0D0A0000380140BD
:1013B00018000020436865636B20446576696365A7
:1013C0003A20426561745F6661696C5F6E756D3D60
:1013D00025640D0A0000000070B588B005460C4673
:1013E000002004900590069007902046FEF7E0FE4E
:1013F000064604A80121002200923346CDE90121CE
:101400000390224629460A2001F070FD38B9059A5A
:1014100091B2049800F080FC04A801F067FB08B0CA
:1014200070BD00002DE9F04F91B0824600200D9074
:101430000E900F9010900C900B900A90099000273E
:101440000890002500248346504602F0D3F8074652
:10145000F81E0D2875D2DFE800F02B9EA7C1DD74C1
:10146000E674F5747474070009AB0CAA0BA9504616
:1014700001F04AFF0546D5B9BDF82400009091A1BE
:101480009948DDE90B2302F059FE0DAADDE90B01B5
:1014900001F07EFB58B995A1934802F04FFE0E9AD9
:1014A00091B20D9800F038FC0DA801F01FFBDAE0B6
:1014B000944808A909AA0CABCDE9002102900AAA18
:1014C0000BA9504601F076FF0546002D62D10C981D
:1014D00003F0DEFB8046B8F1000F28D08AA1404619
:1014E00003F0C0FB81468DA1404603F0BBFB049096
:1014F0008FA1404603F0B6FB0646B9F1000F0CD0B1
:10150000D9F81400012804D101F03CFA02F038FAAD
:1015100003E001F02FFA02F02BFA3EB170690128C6
:1015200002D100F01BFA01E000F00EFA00BF4046C5
:1015300003F06CFB9DF82000012803D0022827D17E
:1015400013E08DE00DA96F48008801F0ABFD58B99C
:101550007CA1654802F0F2FD0E9A91B20D9800F060
:10156000DBFB0DA801F0C2FA13E00DA96548008865
:1015700001F0E0FD58B979A15B4802F0DFFD0E9A59
:1015800091B20D9800F0C8FB0DA801F0AFFA00E091
:1015900000BF00BF67E0504601F0ECFF18B975A12D
:1015A000514802F0CBFD5EE0504602F001F8A0B9D0
:1015B00078A14D4802F0C2FD0DA90A2001F0DEFD20
:1015C00058B97AA1484802F0B9FD0E9A91B20D9827
:1015D00000F0A2FB0DA801F089FA44E04948018817
:1015E000504601F0F4FFA0B976A13F4802F0A6FDF5
:1015F0000DA90A2001F07AFD58B978A13A4802F005
:101600009DFD0E9A91B20D9800F086FB0DA801F099
:101610006DFA28E0504601F0BCFF18B976A13248B7
:1016200002F08CFD1FE0504602F01EF828B978A1A8
:101630002D4802F083FD04E004E07CA12A4802F07A
:101640007DFD10E0504602F029F820B97EA1264821
:1016500002F074FD03E083A1234802F06FFD02E075
:101660004FF0FF3500BF00BF00F0E4F9681C10B96F
:1016700011B0BDE8F08F7D210C98FEF78FFD044678
:10168000A4B1681C90B1641C06E014F8012B584604
:101690000BF1010B05A90A542078302802DB2078D1
:1016A0003928F2DD05A8FEF76BFF83460F2F01D026
:1016B000032F05D10B9802F0ADFD0C9802F0AAFDA6
:1016C00000BFD5E7636D6469643A2025732C2072EE
:1016D00065713A2025732C207265715F6C656E3AD6
:1016E0002025640D0A000000003801405469707321
:1016F0003A0953656E6420436D64526573700D0A38
:1017000000000000200000205374617475734C6960
:101710006768745377697463680000005461726786
:10172000657454656D706572617475726500000052
:10173000416C61726D50726F6D7074537769746330
:1017400068000000546970733A0953656E64205054
:1017500075626C69736841636B0D0A00546970733C
:101760003A0953656E64205075626C6973685265FE
:10177000630D0A00546970733A094D515454205056
:1017800075626C6973682053656E64204F4B0D0A57
:1017900000000000546970733A0952657620507554
:1017A000626C6973685265630D0A00005469707356
:1017B0003A0953656E64205075626C6973685265AE
:1017C0006C0D0A00546970733A09526576205075A1
:1017D000626C69736852656C0D0A0000546970731D
:1017E0003A0953656E64205075626C697368436F83
:1017F0006D700D0A00000000546970733A0952655B
:1018000076205075626C697368436F6D700D0A00C5
:10181000546970733A094D5154542053756273637F
:1018200072696265204F4B0D0A00000054697073A5
:101830003A094D515454205375627363726962655D
:10184000204572720D0A0000546970733A094D51B7
:10185000545420556E537562736372696265204FEC
:101860004B0D0A00546970733A094D515454205578
:101870006E537562736372696265204572720D0AF8
:101880000000000070B586B004460D46002600201A
:10189000029003900490059007E054F826200DA1D3
:1018A000124802F04BFC701CC6B2AE42F5DB02A837
:1018B0002B46224600210090142001F083FC38B909
:1018C000039A91B2029800F027FA02A801F00EF9EB
:1018D00006B070BD53756273637269626520546FA0
:1018E0007069633A2025730D0A000000003801403A
:1018F00010B5044609E000F031F8052000F03BF88F
:1019000000F022F8052000F036F8201EA4F10104B2
:10191000F1D110BD08B50121082001F02BFF1020E6
:101920008DF803004001ADF8000003208DF802009F
:101930006946044800F032FA4FF40071014800F0A3
:10194000CCFA08BD000C014010B54FF400710248FC
:1019500000F0C3FA10BD0000000C014010B54FF4B8
:101960000071024800F0B7FA10BD0000000C014001
:1019700000BFFEE7704770B50446002600254FF40F
:10198000FA7094FBF0F0C6B24FF4FA7094FBF0F1E9
:1019900000FB114085B205E04FF4FA7000F00AF840
:1019A000701EC6B2002EF7D115B1284600F002F81D
:1019B00070BD0000002100B9704720F07F400E4A42
:1019C000128842434FF0E0235A6100229A610122BB
:1019D0001A6100BF4FF0E022116901F001021AB153
:1019E00001F48032002AF5D000224FF0E0231A6182
:1019F0009A6100BFE0E70000160000204FF0E020F1
:101A0000006920F004004FF0E02108610920074937
:101A100008700846007800EB4001C1EBC0104FF69B
:101A2000FF7101EAC00002490880704714000020DD
:101A30001600002010B580210348FEF792FB00201D
:101A40000249088010BD0000440000201C00002056
:101A500070B50546002400BF00F082F980B90DA1E1
:101A60000E48FEF789FB044654B13A212046FEF7A2
:101A700095FB044614B1641C204670BD0020FCE7B1
:101A80000520FFF797FF281EA5F101018DB2E3D1D4
:101A900000BFF2E74950442C000000004400002041
:101AA00008B50121042001F065FE10208DF8030027
:101AB0008002ADF8000003208DF80200694640481E
:101AC00000F06CF900224FF480413D4800F007FA25
:101AD000FA20FFF76FFF01229103394800F0FFF968
:101AE0004FF4FA70FFF766FFFFF7A4FF35A1374800
:101AF00002F024FB03E04FF4FA70FFF75BFF34A120
:101B000034A000F0DFF80028F5D134A12F4802F00E
:101B100015FB03E04FF4FA70FFF74CFF2EA132A043
:101B200000F0D0F80028F5D103E04FF4FA70FFF789
:101B300041FF29A12FA000F0C5F80028F5D131A15F
:101B4000224802F0FBFA03E04FF4FA70FFF732FF8D
:101B50001FA12FA000F0B6F80028F5D130A11B4836
:101B600002F0ECFA03E04FF4FA70FFF723FF18A13C
:101B70002FA000F0A7F80028F5D131A1134802F0FA
:101B8000DDFA03E04FF4FA70FFF714FF2FA131A044
:101B900000F098F80028F5D138A10C4802F0CEFAF0
:101BA00003E04FF4FA70FFF705FF38A1394800F061
:101BB00089F80028F5D138A1044802F0BFFA08BD21
:101BC00000100140302E2041540D0A000038014021
:101BD0004F4B000041540D0A00000000312E2052EE
:101BE00053540D0A0000000041542B5253540D0A67
:101BF0000000000041542B434950434C4F53450DC6
:101C00000A000000322E2043574D4F44450D0A0074
:101C100041542B43574D4F44453D330D0A000000BE
:101C2000332E2041542B4357444843500D0A0000A3
:101C300041542B4357444843503D312C310D0A0049
:101C4000342E2043574A41500D0A0000474F54207C
:101C50004950000041542B43574A41503D224368AC
:101C6000696E614E65742D68764367222C22377742
:101C70006A7570706568220D0A000000352E2043D9
:101C8000495053544152540D0A000000434F4E4EE8
:101C900045435400E46D0008362E20455350383239
:101CA000363620496E6974204F4BA3AC2054435004
:101CB00020636F6E6E656374206973204F4B0D0A4D
:101CC000000000002DE9F04104460D46C8262046DC
:101CD000FEF76EFA87B23A4621460D4802F052FAF4
:101CE0000FE000F03DF848B929460A48FEF744FAEB
:101CF00020B1FFF79FFE0020BDE8F0810A20FFF72A
:101D000059FE301EA6F10101CEB2EAD10120F3E75F
:101D1000004400404400002030B589B004460D4620
:101D2000FFF788FE2A4608A101A802F045FA0AA199
:101D300001A8FFF7C7FF20B92A462146074802F04D
:101D400021FA09B030BD000041542B43495053459E
:101D50004E443D25640D0A003E0000000044004052
:101D60000A48008808B901207047084800880849D7
:101D70000988884203D1002004490880F4E7034819
:101D80000088034908800120EEE700001C000020C5
:101D90001E00002010B500F059FC10BD2DE9F041E7
:101DA000024600250026002000230024002791F889
:101DB00003C00CF00F0591F803C00CF0100CBCF13F
:101DC000000F03D091F802C04CEA050591F800C05D
:101DD000BCF1000F31D0146800202BE04FF0010C53
:101DE0000CFA00F3B1F800C00CEA03069E4220D1C1
:101DF00083004FF00F0C0CFA03F7BC4305FA03FC09
:101E00004CEA040491F803C0BCF1280F06D14FF04E
:101E1000010C0CFA00FCC2F814C00AE091F803C0EF
:101E2000BCF1480F05D14FF0010C0CFA00FCC2F8D0
:101E300010C0401C0828D1D31460B1F800C0BCF118
:101E4000FF0F34DD546800202EE000F1080C4FF045
:101E5000010808FA0CF3B1F800C00CEA03069E4230
:101E600021D183004FF00F0C0CFA03F7BC4305FAA5
:101E700003FC4CEA040491F803C0BCF1280F05D11F
:101E800000F1080C08FA0CF8C2F8148091F803C0AD
:101E9000BCF1480F07D100F1080C4FF0010808FA17
:101EA0000CF8C2F81080401C0828CED35460BDE85E
:101EB000F0810246002093680B400BB1012000E046
:101EC0000020704702460020D3680B400BB1012070
:101ED00000E00020704741617047016170470AB11E
:101EE000016100E041617047F0B587B004460D46DE
:101EF00042F6064000F092FA062104A800F044FBE6
:101F00002A46214604A800F0CDF9BDF81000C0B261
:101F10008DF80C00BDF81200C0B28DF80D00BDF8B0
:101F20001600C0B28DF80800BDF81800C0B28DF8D8
:101F30000900022103A802F055FF0646022102A86B
:101F400002F050FF0746BDF81400B04203D1BDF8BF
:101F50001A00B8420BD0BDF81A00CDE90070BDF8E8
:101F60001430324605A1144802F0E8F803E013A14A
:101F7000114802F0E3F807B0F0BD0000637263207F
:101F80006572726F7221216372635F746D702D765A
:101F900065726966795B25642D25645D2C637263C7
:101FA0005F72682D7665726966795B25642D25649C
:101FB0005D200D0A000000000038014063726320BC
:101FC000766572696679204F4B3D3D3E000000000A
:101FD00010B504460723012221460948FFF70CF8F3
:101FE00001210748FFF769F800BF02210448FEF706
:101FF000C7FF0028F9D00248FEF7BEFF10BD000061
:10200000002401402DE9F04107460C46002500263A
:1020100008E03846FFF7DCFF05440520FFF7ABFC7E
:10202000701CC6B2A642F4DBB5FBF4F080B2BDE88A
:10203000F08100002DE9F05F0646884693469A46F7
:10204000DDF82890E2E099F80000802835DA99F868
:102050000070202F03DDA7F1200087B200E00027E9
:10206000002522E000241CE005EB07106B49095C09
:1020700080202041014041B108EB050291B23219A4
:1020800090B25A4600F0CEF809E0D34507D008EBED
:10209000050291B2321990B2524600F0C3F8601CAA
:1020A000C4B2082CE0DB681CC5B2102DDADB09F1E4
:1020B000010906F1080086B2A8E000279EE007EBC0
:1020C000870000EB4710564911F8100099F80010EE
:1020D00088427CD107EB870000EB4710504901EBA9
:1020E0004000407899F801108842F2D1002580E044
:1020F000002423E007EB870000EB4710484901EB81
:102100004000801C05EB4501405C802121410840D6
:1021100040B108EB050291B2321990B25A4600F074
:1021200081F809E0D34507D008EB050291B23219D6
:1021300090B2524600F076F8601CC4B2082CD9DB8D
:10214000002426E007EB870000EB4710344901EB41
:102150004000801C05EB4501491C405C8021214169
:10216000084048B108EB050291B23219083290B22A
:102170005A4600F057F80AE0D34508D008EB0502AC
:1021800091B23219083290B2524600F04BF8601CFE
:10219000C4B2082CD6DB002427E007EB870000EB55
:1021A00047101F4901EB4000801C05EB4501891CCD
:1021B000405C80212141084050B108EB050291B2FA
:1021C0003219103290B25A4600F02CF80BE013E0AE
:1021D000D34508D008EB050291B23219103290B203
:1021E000524600F01FF8601CC4B2082CD5DB681CF6
:1021F000C5B2182DFFF67CAF781C87B2142FFFF6FE
:102200005EAF09F1020906F1180086B299F80000E4
:1022100000287FF418AFBDE8F09F0000985900082F
:10222000F867000870B504460D461646681C83B270
:10223000601C82B22946204600F008FC304600F0BF
:102240006FFB70BD00BFFEE710B54FF4A06001F05A
:1022500069FAFFF7D3FB00F075F84FF4E13001F0B5
:10226000C5FE4FF4E13001F013FFFEF7FBFD00F077
:102270009FFB00F03FFAFFF74DFB01F089FD01F0F5
:102280005FFB02A1064801F059FF10BD20486172B2
:10229000647761726520696E6974204F4B0D0A0086
:1022A000003801402DE9F04F87B004468946924638
:1022B0000020059004906088217840EA01201FFAF0
:1022C00080FB5846FEF7F1FA07460022194BFEF74D
:1022D0000BFA0022184BCDE90001FEF777FA05460C
:1022E0000022164BFEF759F9CDE90201FEF74CFB2F
:1022F00005902089A17940EA012080B206900698D5
:10230000FEF7D3FA054600220D4BFEF7EDF9002249
:10231000094BCDE90201FEF759FA0746FEF734FBF7
:1023200004900598C9F800000498CAF8000007B0A6
:10233000BDE8F08F00E06540E0FFEF40008046C060
:102340000000594000B585B00121082001F012FAC3
:102350000121480501F0FEF91C208DF81300C02072
:10236000ADF8100003208DF8120004A91148FFF702
:1023700015FD4FF48060ADF80A000001ADF80C00C7
:102380000D4800904BF6FF70ADF806000020ADF848
:1023900004000A20ADF808006946084800F07EF8FD
:1023A0000121064800F02DF80121044800F008F84A
:1023B00005B000BD000C0140801A0600005400402A
:1023C00021B1028842F48062028004E002884FF664
:1023D000FF331A400280704770B502460024002582
:1023E00000230020958A138B1B0445EA030626F080
:1023F0007F4404EA01068E4201D1012000E0002062
:1024000070BD21B1028842F00102028004E002881E
:102410004FF6FE731A4002807047000010B5044664
:1024200001210F4800F022F800BF0E490C48FFF7C9
:10243000D3FF0028F9D000228821094800F0DEF8F7
:1024400000BF09490648FFF7C7FF0028F9D020461A
:1024500001F0ACFA0121024800F014F810BD0000B0
:1024600000540040010003008200070021B10288EF
:1024700042F48072028004E002884FF6FF631A4043
:102480000280704721B1028842F40072028004E0A9
:1024900002884FF6FF531A40028070472DE9F0433F
:1024A00085B004460D460026B1460427DFF8CC80EF
:1024B000A6884FF6C0700640684601F07BF9DDF84B
:1024C00008802F48B8FBF0F01FFA80F946EA0906A9
:1024D000A68020884FF6FE710840208000262949FA
:1024E000286888420CD828684000B8FBF0F087B212
:1024F000042F00DA04273E4309F10100208427E07D
:10250000E8884BF6FF71884206D1286800EB40004E
:10251000B8FBF0F087B209E0286800EBC00101EBDE
:102520000010B8FBF0F087B247F48047C7F30B0008
:1025300008B947F0010747F4004006434FF496708E
:1025400009FB00F04FF47A7190FBF1F0401C2084FD
:10255000A683208840F00100208026884FF6F530C1
:102560000640A8886989084306432680A8892989E6
:102570000843208105B0BDE8F083000000127A0016
:1025800040420F00A086010070B505460C460121AF
:102590001648FFF76BFF00BF15491448FFF71CFFF3
:1025A0000028F9D001228921104800F027F800BF47
:1025B0000F49491C0D48FFF70FFF0028F8D00EE027
:1025C00000BF0B493F310948FFF706FF0028F8D04C
:1025D000064800F00FF82880AD1C601EC4B2002C25
:1025E000EED101210148FFF74DFF70BD00540040BE
:1025F000010003000146088AC0B2704712B141F0E1
:10260000010102E04FF6FE7319400182704701821A
:10261000704700004CF6CC4001490860704700004C
:102620000030004070B505460C4645F2555000F0AC
:1026300021F8284600F012F8611E88B200F014F864
:1026400000F004F8FFF7E6FF70BD00004AF6AA208C
:1026500001490860704700000030004001494860AF
:10266000704700000030004001498860704700005A
:102670000030004001490860704700000030004011
:1026800008B50121082001F075F80320ADF800001D
:102690008DF8020010208DF8030069461248FFF7FC
:1026A0007DFB0121042001F065F8B020ADF80000A9
:1026B00003208DF8020010208DF8030069460B48B6
:1026C000FFF76CFB0121102001F054F82020ADF839
:1026D000000003208DF8020010208DF803006946E9
:1026E0000348FFF75BFB08BD000C014000080140F8
:1026F0000010014010B5FFF7C3FF00F095F920204E
:1027000086490861112000F0DDF97820FFF733F9E0
:10271000B12000F0D7F9012000F0C0F92C2000F022
:10272000BDF92D2000F0BAF9B22000F0CBF901205C
:1027300000F0B4F92C2000F0B1F92D2000F0AEF932
:10274000B32000F0BFF9012000F0A8F92C2000F020
:10275000A5F92D2000F0A2F9012000F09FF92C200E
:1027600000F09CF92D2000F099F9B42000F0AAF9AE
:10277000072000F093F9C02000F0A4F9A22000F097
:102780008DF9022000F08AF9842000F087F9C12039
:1027900000F098F9C52000F081F9C22000F092F90C
:1027A0000A2000F07BF9002000F078F9C32000F047
:1027B00089F98A2000F072F92A2000F06FF9C4200C
:1027C00000F080F98A2000F069F9EE2000F066F947
:1027D000C52000F077F90E2000F060F9362000F0F7
:1027E00071F9C02000F05AF9E02000F06BF90F20D9
:1027F00000F054F91A2000F051F90F2000F04EF9C2
:10280000182000F04BF92F2000F048F9282000F0A4
:1028100045F9202000F042F9222000F03FF91F2066
:1028200000F03CF91B2000F039F9232000F036F9C4
:10283000372000F033F9002000F030F9072000F0D5
:102840002DF9022000F02AF9102000F027F9E120EC
:1028500000F038F90F2000F021F91B2000F01EF9DC
:102860000F2000F01BF9172000F018F9332000F0BA
:1028700015F92C2000F012F9292000F00FF92E2074
:1028800000F00CF9302000F009F9302000F006F9D2
:10289000392000F003F93F2000F000F9002000F09B
:1028A000FDF8072000F0FAF8032000F0F7F81020F8
:1028B00000F0F4F82A2000F005F9002000F0EEF80E
:1028C000002000F0EBF8002000F0E8F87F2000F096
:1028D000E5F82B2000F0F6F8002000F0DFF80020EB
:1028E00000F0DCF8002000F0D9F89F2000F0D6F8C6
:1028F000F02000F0E7F8012000F0D0F8F62000F01A
:10290000E1F8002000F0CAF83A2000F0DBF80520DA
:1029100000F0C4F8292000F0D5F810BD00100140E7
:1029200010B50446102008490860022007490860D5
:10293000201201F05BF8E0B201F058F810200249D3
:10294000091F086010BD000014080140100C014070
:1029500010B5044609E000F015F80520FFF70BF864
:1029600000F008F80520FFF706F8201EA4F1010486
:10297000F1D110BD10B501210148FFF7AEFA10BD2D
:102980000010014010B501210148FFF7A4FA10BD65
:102990000010014010B501210448FFF793FA10B967
:1029A000FFF7E8FF01E0FFF7EDFF10BD0010014069
:1029B00008B50121102000F0DDFE10208DF8030085
:1029C0000120ADF8000003208DF80200694604489C
:1029D000FFF7E4F901210248FFF77FFA08BD000084
:1029E000001001402DE9F04381460D4614461E4675
:1029F000601E83B2681E82B2A1B2002000F026F8E9
:102A00002C2000F05FF8002709E0A04604E04846CB
:102A1000FFF786FF08F10108B045F8D37F1CAF42ED
:102A2000F3D3BDE8F083000010B50120064908602B
:102A30006420FEF7A0FF01200349091F086032202F
:102A4000FEF799FF10BD0000140C0140F0B50446DC
:102A50000D4616461F462A2000F034F8002000F0EC
:102A60001DF8E0B200F01AF8002000F017F8F0B2FC
:102A700000F014F82B2000F025F8002000F00EF8EC
:102A8000E8B200F00BF8002000F008F8F8B200F00F
:102A900005F82C2000F016F8F0BD000010B5044633
:102AA000102006490860022005490860204600F011
:102AB0009DFF10200149091F086010BD1408014046
:102AC000100C014010B50446102006490860022091
:102AD00005490860204600F089FF10200149091FC0
:102AE000086010BD14080140140C014010B50446E4
:102AF000207B012802D1206801F08CFB002020609F
:102B00006060A060207310BD0246002301230DE029
:102B100002F07F000870D2092AB1087840F08000E6
:102B20000870491C01E0184670475B1C042BEFDD60
:102B30004FF0FF30F8E770B504460E4600252068D8
:102B400098B901202073304601F092FB2060206884
:102B5000E0B100206060A66003E0002021684855D5
:102B60006D1CA068A842F8D810E00220207303E092
:102B70000020216848556D1CA068A842F8D80020A4
:102B80006060A068B04201D20020206070BD0000EB
:102B90002DE9FF5F07460D4690463846FDF708FBD6
:102BA00086B22846FDF704FB1FFA80FA4FF00009B1
:102BB000F01D01F05DFB04461CB9012004B0BDE826
:102BC000F09FF11D2046FDF7CCFA12A001682160AC
:102BD0008088A080324639462046FDF7FEFA284616
:102BE000FDF7E6FA83460120002100915B462A4664
:102BF000CDE90208019121460A2000F077F910B9C9
:102C00004FF0000901E04FF00109204601F002FBFE
:102C10004846D3E724637273702F00002DE9FF4FFD
:102C200083B082468B469146159C00250020029079
:102C30000F2701905046FDF7BBFA0FFA80F8BAF162
:102C4000000F03D1012007B0BDE8F08F08F10200AA
:102C5000384487B2109808B145F00205129878B14F
:102C600045F004051298FDF7A3FAC0B2029013983C
:102C7000FDF79EFA01460298001D0844384487B2C9
:102C8000119820B1012804D0022808D104E000BF27
:102C900007E045F00C0504E045F0140501E00220D2
:102CA000D1E700BF149808B145F02405BBF1000F2F
:102CB00002D0B9F1000F01D10320C4E745F0C005EF
:102CC0005846FDF775FA06464846FDF771FA304456
:102CD000001D384487B239462046FFF72CFF206894
:102CE00008B90420AFE739462068FDF73AFA102109
:102CF0006268501C606020688154D4E90023D118B8
:102D0000781FFFF701FF00B201900198002804DA54
:102D10002046FFF7EBFE052095E76168019808441F
:102D2000606000216268501C60602068815404214A
:102D30006268501C6060206881544D216268501C9C
:102D400060602068815451216268501C6060206876
:102D5000815454216268501C60602068815462680C
:102D6000501C60602068815404216268501C6060BF
:102D7000206881546168481C60602068455406984A
:102D8000010A6268501C6060206881540698C1B2D4
:102D90006268501C606020688154C8F30721626833
:102DA000501C6060206881546268501C606020681C
:102DB00000F80280D4E90012881842465146FDF717
:102DC0000CFA60684044606005F00400B8B3002667
:102DD000139808B938A013901298FDF7E9F986B254
:102DE000310A6268501C6060206881546268501C1F
:102DF000606020688654D4E900128818324612991F
:102E0000FDF7EBF96068304460601398FDF7D0F986
:102E100086B2310A6268501C606020688154626822
:102E2000501C606020688654D4E90012881832462D
:102E30001399FDF7D2F960683044606000BF05F077
:102E40008000C8B15846FDF7B3F986B2310A62680E
:102E5000501C6060206881546268501C606020686B
:102E60008654D4E90012881832465946FDF7B5F960
:102E700060683044606000BF05F04000C8B148465B
:102E8000FDF796F986B2310A6268501C60602068CE
:102E900081546268501C606020688654D4E9001236
:102EA000881832464946FDF798F9606830446060FA
:102EB00000BF0020C7E600000000000010B5044677
:102EC00002212046FFF737FE206808B9012010BD17
:102ED000C0216268501C60602068815400216268D3
:102EE000501C6060206881540020F0E72DE9FF4FFE
:102EF00083B0834617469946139C00250026002080
:102F0000029001908046BBF1000F03D1012007B071
:102F1000BDE8F08F00260AE00498805D232803D0E6
:102F20000498805D2B2801D10220F0E7761C0498DC
:102F3000805D0028F0D148F03008119808B148F0C1
:102F4000010806EB0900851C109820B1012804D067
:102F500002280AD105E000BF09E048F00208AD1CD4
:102F600005E048F00408AD1C01E00320CFE700BFF6
:102F70008FB33878022821D14FF0000A00BF5046A5
:102F80000AF1010A385C7D28F9D1AAF1030A0AF195
:102F9000070002900298A9EB000AE81CA0EB0A01C6
:102FA0002046FFF7C8FD206808B90420AFE7EA1CF7
:102FB000A2EB0A012068FDF7D4F819E0691D20464C
:102FC000FFF7B9FD206808B90420A0E7691D206853
:102FD000FDF7C7F80CE0FFE7691D2046FFF7ABFDE2
:102FE000206808B9042092E7691D2068FDF7B9F848
:102FF0006168481C6060206800F80180D4E9000224
:1030000081182846FFF780FD01900198002804DA16
:103010002046FFF76BFD052079E7616801980844B9
:103020006060C6F307216268501C606020688154AC
:103030006268501C606020688654D4E900128818C9
:1030400032460499FDF7C9F8606830446060109812
:1030500060B14FEA1B216268501C60602068815497
:103060006268501C6060206800F802B0C7B1387810
:1030700002280BD1D4E9001288183946029AFDF7CC
:1030800057F8616802980844606009E0D4E90012CA
:1030900088184A463946FDF74BF860684844606036
:1030A000002034E770B505460C4604212046FFF7A2
:1030B00042FD206808B9012070BD40216268501CA3
:1030C00060602068815402216268501C6060206842
:1030D000815429126268501C6060206881546268C3
:1030E000501C6060206885540020E5E770B50546F7
:1030F0000C4604212046FFF71EFD206808B9012078
:1031000070BD70216268501C60602068815402218B
:103110006268501C60602068815429126268501CEB
:103120006060206881546268501C6060206885542B
:103130000020E5E770B505460C4604212046FFF760
:10314000FAFC206808B9012070BD50216268501C4B
:1031500060602068815402216268501C60602068B1
:10316000815429126268501C606020688154626832
:10317000501C6060206885540020E5E770B5054666
:103180000C4604212046FFF7D6FC206808B9012030
:1031900070BD62216268501C606020688154022109
:1031A0006268501C60602068815429126268501C5B
:1031B0006060206881546268501C6060206885549B
:1031C0000020E5E72DE9FF5F8046174699460E9CF3
:1031D0000026B246B3460025B8F1000F03D1012006
:1031E00004B0BDE8F09F0BE057F8250008B90220B5
:1031F000F6E757F82500FCF7DBFF0644681CC5B26C
:103200004D45F1DB09EB4900801C00EB060A0AF191
:1032100005012046FFF78FFC206808B90320DFE78F
:1032200082216268501C606020688154D4E90002E9
:1032300081185046FFF768FC0FFA80FBBBF1000FC6
:1032400004DA2046FFF752FC0420C9E760685844BE
:1032500060604FEA18216268501C606020688154E9
:103260006268501C6060206800F80280002524E03D
:1032700057F82500FCF79CFF0646C6F30721626855
:10328000501C6060206881546268501C6060206837
:103290008654D4E90023D01857F825103246FCF79D
:1032A0009CFF6068304460600198C1B26268501C45
:1032B000606020688154681CC5B24D45D8DB002091
:1032C0008EE7F0B504460D46264601230020106027
:1032D000002114E0775C07F07F07106807FB03000C
:1032E0001060705C00F0800008B9481CF0BDDB0184
:1032F000B3F5001F02D36FF00100F7E7491CA942A4
:10330000E8DB4FF0FF30F1E72DE9F84380460C464B
:1033100015461E462F2108F10600FCF73FFF074621
:103320000020009017B90120BDE8F8837F1C6A4691
:10333000042108F10100FFF7C4FF252000F098FFE9
:103340002060206808B90220EEE725212068FCF7FC
:1033500008FF242239462068FCF7EAFE243700984B
:103360002C3830803188481C00F082FF28602868A3
:1033700020B9206800F04EFF0320D5E73288511CA9
:103380002868FCF7EEFE328839462868FCF7D0FE44
:103390000020C9E701464878022801D00120704783
:1033A000887810B18878012801D1C878F7E7FF2024
:1033B000F5E700002DE9FC5F81460D4614461E46E8
:1033C000DDE90C8B99F8000000F00F0A0020019055
:1033D0000AF008000090CAF341008BF8000001AA2F
:1033E000042109F10100FFF76CFF4844471C0198D4
:1033F000022802D30AF0010010B1FF20BDE8FC9FB3
:103400007878397840EA012020802088801C019952
:10341000884201D9FF20F1E754A1B81CFCF7ACFEAB
:1034200008B10F20EAE79BF8000020B101283DD049
:10343000022877D13BE0009808B1FF20DEE7218821
:10344000481C00F015FF2860286808B9FF20D5E760
:103450002288511C2868FCF784FE2288B91C286841
:10346000FCF766FE0198801E2188401AA8F800002B
:10347000B8F80010481C00F0FBFE3060306820B93E
:10348000286800F0C7FEFF20B8E7B8F80020511CFC
:103490003068FCF766FEB8F80020B4F800C0BB1C2A
:1034A0000CEB03013068FCF743FE4FE000BF2088BF
:1034B000801C0199884201D9FF209FE72088C01C09
:1034C000395C2088801C385C41EA00210E9801801C
:1034D0000E9808B9FF2091E72188481C00F0C8FE2B
:1034E0002860286808B9FF2088E72288511C2868CE
:1034F000FCF737FE2288B91C2868FCF719FE0198F2
:10350000001F2188401AA8F80000B8F80010481CD5
:1035100000F0AEFE3060306828B9286800F07AFE0E
:10352000FF206BE710E0B8F80020511C3068FCF772
:1035300018FEB8F80020B4F800C03B1D0CEB0301E6
:103540003068FCF7F5FD01E0FF2057E700BF2B21B5
:103550002846FCF723FE20B923212846FCF71EFE4F
:1035600008B1FF204AE7002048E7000024637265A5
:103570007100000001464878022801D00120704700
:10358000887820B9C8780A2801D10020F7E70120FF
:10359000F5E701464878022801D001207047887875
:1035A00020B9C8780A2801D10020F7E70120F5E703
:1035B00001464878022801D001207047887820B958
:1035C000C8780A2801D10020F7E70120F5E7024674
:1035D0005078022801D0012070479078B0EB112F6D
:1035E00005D1D078CBB2984201D10020F4E7012078
:1035F000F2E70000F8B50446FF2720780511012DF9
:1036000001DB0E2D01DD3846F8BD032D24D100204D
:1036100000906A460421601CFFF753FE2044461CBC
:103620000098022803D3207800F0010008B1FF20A1
:10363000EAE77078317840EA0120801C00998842DE
:1036400001D9FF20E0E706A1B01CFCF795FD08B109
:103650000F2700E0032700E02F463846D4E700009C
:1036600024637265710000000146FF208A78A2B9C8
:10367000CA78142A11D10A7932B1012A05D0022A56
:1036800004D0802A06D103E000BF00BF002003E081
:10369000012001E0022000BF00BF70470146012069
:1036A0008A781AB9CA781E2A00D10020704700BF54
:1036B000FEE7704770B5002100230F22C47804B3E1
:1036C000154C246804F4E064C4F5E064210AC1F1F7
:1036D0000403CA40447804FA03F184781440214377
:1036E00009010E4C0678A155047804F01F05012449
:1036F000AC4005786D11AD0005F1E025C5F800413D
:1037000009E0047804F01F050124AC40044D06785C
:10371000761145F8264070BD0CED00E000E400E0B5
:1037200080E100E002490143024A11607047000055
:103730000000FA050CED00E0704700000146002093
:10374000034A506820F4404008435060704700002E
:103750000010024029B1064AD2690243044BDA61E3
:1037600004E0034AD2698243014BDA6170470000EA
:103770000010024029B1064A92690243044B9A6143
:1037800004E0034A92698243014B9A61704700004A
:103790000010024029B1064AD2680243044BDA60A5
:1037A00004E0034AD2688243014BDA6070470000AC
:1037B000001002402DE9F0410021002200250023E5
:1037C0000026002400278C46DFF86081D8F80480AA
:1037D00008F00C0121B1042907D0082959D109E0CA
:1037E000DFF84C81C0F8008058E0DFF84481C0F871
:1037F000008053E0DFF83481D8F8048008F47012B8
:10380000DFF82881D8F8048008F48035920C0D2A5E
:1038100001D0921C00E0062235B9DFF8188102FBC6
:1038200008F8C0F8008033E0DFF80081D8F82C8079
:1038300008F48036DFF8F480D8F82C8008F00F0800
:1038400008F1010446B9DFF8E880B8FBF4F808FB9A
:1038500002F8C0F800801BE0DFF8D080D8F82C8098
:10386000C8F3031808F10107DFF8C080D8F82C80EE
:10387000C8F3032808F1020CDFF8B480B8FBF7F8AE
:1038800008FB0CF8B8FBF4F808FB02F8C0F800805D
:1038900004E0DFF89C80C0F8008000BF00BFDFF8C4
:1038A0008C80D8F8048008F0F0010909DFF88880DE
:1038B00018F80130D0F8008028FA03F8C0F8048026
:1038C000DFF86880D8F8048008F4E061090ADFF8BE
:1038D000688018F80130D0F8048028FA03F8C0F89E
:1038E0000880DFF84880D8F8048008F46051C90ADD
:1038F000DFF8448018F80130D0F8048028FA03F883
:10390000C0F80C80DFF82480D8F8048008F4404127
:10391000890BDFF8288018F80130D0F80C80B8FB4C
:10392000F3F8C0F81080BDE8F081000000100240FC
:1039300000127A0000093D00000000201000002065
:1039400008B501211020FFF715FF10208DF80300A6
:10395000ADF8000003208DF8020069460348FEF729
:103960001DFA10210148FEF7B6FA08BD001001400B
:1039700010B510210148FEF7AEFA10BD001001404D
:1039800010B510210148FEF7A8FA10BD0010014043
:1039900010B510210448FEF795FA10B9FFF7F0FFB3
:1039A00001E0FFF7E5FF10BD0010014070B50446CF
:1039B000E5B2261231460B48FEF729FE00BF0A4940
:1039C0000848FEF709FD0028F9D029460548FEF70A
:1039D0001EFE00BF04490348FEF7FEFC0028F9D094
:1039E00070BD000000540040840007000021082141
:1039F00014E000F080021AB180220A4B1A6003E042
:103A00008022084B1B1D1A602022064B1B1D1A60CA
:103A10001B1F1A604206100E4A1ED1B20029E8DCB4
:103A20007047000010080140704710B500F002F820
:103A300010BD00000CB50020019000903F480068C8
:103A400040F480303D49086000BF3C48006800F405
:103A5000003000900198401C0190009818B901981E
:103A6000B0F5A06FF1D13548006800F4003010B116
:103A70000120009001E000200090009801285CD116
:103A80002F48006840F010002D4908600846006883
:103A900020F0030008600846006840F0020008605B
:103AA00026484068254948600846406848600846FE
:103AB000406840F4806048600846C06A2149084078
:103AC0001E49C8620846C06A1F4908431B49C862AC
:103AD0000846006840F08060086000BF1748006832
:103AE00000F000600028F9D01448406820F47C10F1
:103AF000124948600846406840F4E81048600846AB
:103B0000006840F08070086000BF0C48006800F05A
:103B100000700028F9D00948406820F003000749E8
:103B200048600846406840F00200486000BF034813
:103B3000406800F00C000828F9D10CBD00100240CC
:103B40000020024000F0FEFF440601007047000024
:103B500010B51648006840F0010014490860084696
:103B600040681349084011494860084600681149F7
:103B700008400E4908600846006820F4802008606C
:103B80000846406820F4FE0048600846006820F0BF
:103B9000A05008604FF47F0088600020C862FFF7E3
:103BA00044FF4FF000600449086010BD001002405F
:103BB0000000FFF0FFFFF6FE08ED00E010B5012168
:103BC000064800F01CF838B10121044800F014F850
:103BD00003A1084800F0B2FA10BD00000004004044
:103BE00054494D2049525148616E646C6572200DF4
:103BF0000A00000000380140CA430282704730B515
:103C00000246002000230024158A05EA0103958955
:103C100005EA010413B10CB1012000E0002030BD21
:103C20002DE9F04190B005460C46904600200D90DD
:103C30000E900F900A900B900C90079008900990AE
:103C400042463CA107A800F0B7FA2846FCF759FE07
:103C5000064632460B463AA10DA800F0ADFA2046C2
:103C6000FCF74FFE064632460B4638A10AA800F084
:103C7000A3FA39A103C9CDE9050139A0D0E90012A1
:103C80008068CDE9021204902023002280214FF4A5
:103C90007840FEF7A7FE4023202280214FF6E070F7
:103CA000FEF7A0FE60234022802148F21040FEF77C
:103CB00099FE8023602219464FF4FC60FEF792FEC5
:103CC000A023802211461F20FEF78CFE05A84FF48A
:103CD000784344F208220A2100902320FEF7AAF933
:103CE0000DA84FF6E0734FF47842242100900A208B
:103CF000FEF7A0F90AA848F210434FF47842442195
:103D000000900A20FEF796F907A84FF4FC634FF4E1
:103D10007842642100900A20FEF78CF902A81F2344
:103D20004FF6FF728C2100902D20FEF783F910B022
:103D3000BDE8F081B9E2D5D52025644C78000000BB
:103D4000CEC2B6C820252E3266A1E600CAAAB6C8E1
:103D5000202525252E32660057455F484F4D4500EA
:103D6000323032322D30342D3236000010B500247E
:103D700080210648FEF79DF8012804D14FF4967083
:103D8000FDF7F9FD0124204610BD000000100140A0
:103D900008B501211020FFF7EDFC48208DF8030045
:103DA0008020ADF8000003208DF80200694602482B
:103DB000FDF7F4FF08BD00000010014010B540F20F
:103DC0002551044800F050F818B12021014800F0B6
:103DD00029F810BD0038014010B540F225510E48B9
:103DE00000F042F8B0B10D480088802802D30020CE
:103DF0000A4908800848001D0088C1B207480288A7
:103E00000088401C054B1880054881542021024839
:103E100000F008F810BD0000004400401C00002025
:103E20004400002001F40072B2F5007F00D100BF11
:103E3000CA430280704721B1828942F400528281D4
:103E400004E082894DF6FF731A4082817047024672
:103E50000020B1F5007F00D100BF13880B400BB1EB
:103E6000012000E00020704770B5024600240023C6
:103E70000025002040F66A16B14200D100BFC1F310
:103E8000421501F01F03012606FA03F3012D02D1AA
:103E90009689334006E0022D02D1168A334001E0B4
:103EA000968A33400C12012606FA04F41688344030
:103EB00013B10CB1012000E0002070BDF0B5034645
:103EC000002400260025002040F66A17B94200D1E0
:103ED00000BF1846C1F3421401F01F06012707FA7C
:103EE00006F5012C01D10C3004E0022C01D1103078
:103EF00000E014301AB107682F43076002E007683A
:103F0000AF430760F0BD00002DE9F04786B00546DD
:103F10000E460024A24600BFA1460027B08900B18A
:103F200000BF2F462C8A4CF6FF700440F0880443F3
:103F30002C82AC894EF6F3100440B08831890843D6
:103F4000718908430443AC81AC8A4FF6FF400440BA
:103F5000B0890443AC8201A8FFF72CFC1F488742BC
:103F600002D1DDF810A001E0DDF80CA0A88900F472
:103F7000004040B10AEBCA0000EB0A10316849006A
:103F8000B0FBF1F807E00AEBCA0000EB0A10316859
:103F90008900B0FBF1F86420B8FBF0F004012009BF
:103FA000642101FB1089A88900F4004040B132204F
:103FB00000EBC900B0FBF1F000F00700044308E09B
:103FC000322000EB09106421B0FBF1F000F00F008B
:103FD00004432C8106B0BDE8F087000000380140A2
:103FE000C1F308028280704700BFFEE710B586B0BB
:103FF000044601210420FFF7BDFB01218803FFF7E0
:10400000B9FB18208DF817004FF40070ADF81400BC
:1040100003208DF8160005A91B48FDF7BFFE0420FC
:104020008DF817000002ADF8140005A91648FDF739
:10403000B5FE25208DF8000001208DF803008DF8D5
:1040400001008DF802006846FFF734FB0194002060
:10405000ADF810000C20ADF80E000020ADF80C00FB
:10406000ADF80A00ADF8080001A90848FFF74CFFB9
:10407000012240F225510548FFF720FF01210348A6
:10408000FFF7D9FE06B010BD00080140003801401E
:1040900010B586B0044601210420FFF76BFB012117
:1040A0004804FFF757FB18208DF817000420ADF8DF
:1040B000140003208DF8160005A91E48FDF76EFEBA
:1040C00004208DF817000820ADF8140003208DF8A7
:1040D000160005A91748FDF761FE01940020ADF810
:1040E00010000C20ADF80E000020ADF80C00ADF86B
:1040F0000A00ADF8080001A90F48FFF705FF0121EC
:104100000D48FFF798FE012240F225510A48FFF7BB
:10411000D5FE26208DF8000001208DF80300002038
:104120008DF801008DF802006846FFF7C3FA06B06B
:1041300010BD000000080140004400400FB430B53D
:10414000CBB0054601AC50A800904FF4947101A883
:10415000009B4F9A00F044F8002000900BE014F808
:10416000011B2846FFF73CFF00BF40212846FFF710
:104170006EFE0028F9D020780028F0D14BB030BC7A
:104180005DF814FB2DE9F04107460C461546002664
:104190000DE014F8011B3846FFF722FF00BF402155
:1041A0003846FFF754FE0028F9D0701C86B2AE42A4
:1041B000EFDBBDE8F08100000FB4084B10B504A997
:1041C00002AA039800F056F9044602A9002000F064
:1041D000F3FC204610BC5DF814FB0000B94B00084E
:1041E0007CB5044600201D46164600290BD0491E0A
:1041F000CDE90041044B6A462946304600F03AF9C1
:10420000009A002111707CBDA34B00080048704744
:104210004000002030B528B1144C031F0020216855
:104220000A4605E0084630BD9A4203D81046526857
:10423000002AF9D1002800D041680BD00468A3EB14
:104240000005A54204D11B681C440346046002E03B
:10425000436000E023603AB11C68D51AA54203D13F
:1042600015682C441C6052685A6030BD380000202C
:104270002DE9F04782460F4C10480D4E0E4F001BA3
:104280004FF0000820F007054FF001090022114609
:10429000504600F0EDFD002802D1306810B100203A
:1042A000BDE8F0873C60C4E90058C6F80090EDE72F
:1042B0003C000020CC00002038000020C802002074
:1042C00002E008C8121F08C1002AFAD170477047DF
:1042D000002001E001C1121F002AFBD1704700003D
:1042E0002DE9FF5F82B00021DDE90430020DDDF829
:1042F00040B0034318D044F61050A2F2FF324243BC
:104300001514119801281FD0A5EB0B00401C5FEA83
:10431000000A4FF000064E4FDFF83891B046504685
:1043200015D5CAF1000413E0119801244AA301280D
:1043300001D16FEA0B010298119AC0E90031C0E97E
:10434000024206B0BDE8F09FCBF10000DFE7044673
:104350000021404A491842EB0450CDE9001012E018
:10436000E00707D032463B4640464946FCF7BCF9D9
:104370008046894632463B4610461946FCF7B4F95A
:1043800006460F466410002CEAD1DDE90401DDE9A0
:104390000023BAF1000F06DAFCF7A6F942464B46B5
:1043A000FCF7A2F905E0FCF711FA42464B46FCF790
:1043B0000DFA04460E460022284BFCF7CDFA03D82E
:1043C0004FF0FF30014607E00022254B20463146E2
:1043D000FCF7E3F8FCF7B2FC102409E0002C0ADB40
:1043E0000A220023FCF702FB039B30321A55641E9D
:1043F00050EA0102F2D1641C039AC4F1110314447F
:10440000119A012A03D0012208430DD10AE0084382
:1044100004D000204FF0110B119072E7A3EB0B05B5
:104420006D1E0DE05B4504DD4FF0000205F1010556
:1044300004E003DA4FF00002A5F10105002AECD0F8
:1044400002981199C0E90231C0E9004579E70000FE
:10445000000014400000F03F300000000000F04376
:104460000000E03F30380A2801D2012070470020C8
:10447000704700002DE9FF4F95B09B4689460646E0
:1044800000250FE2252877D100242746F84A01218C
:10449000059400E0044316F8013F203B01FA03F0C5
:1044A0001042F7D130782A2811D06FF02F033078DE
:1044B000A0F13002092A16D8059A44F0020402EB52
:1044C000820203EB42021044761C0590EFE759F894
:1044D000042B0592002A03DA504244F4005405905C
:1044E00044F00204761C30782E2816D116F8010FFD
:1044F00044F004042A280DD06FF02F023078A0F188
:104500003003092B09D807EB870302EB4303C718D5
:10451000761CF3E759F8047B761C30786C280FD0B2
:1045200006DC4C2817D068280DD06A2814D104E086
:10453000742810D07A280FD10DE044F400140AE05A
:1045400044F4801401E044F440147278824202D1B1
:1045500004F58014761C761C307866280BD013DCAA
:10456000582877D009DC002875D04528F6D0462891
:10457000F4D047281AD19DE118E0632835D064288B
:1045800079D0652812D195E1702873D008DC6728AE
:10459000F1D069286FD06E280DD06F2806D1B5E014
:1045A00073282CD0752875D0782874D05A4617995E
:1045B00090476D1C75E1C4F30250022809D003280E
:1045C0000DD0D9F8001004280DD00D6009F10409B0
:1045D00067E1D9F80010EA17C1E90052F6E7D9F807
:1045E00000100D80F2E70D70F0E719F8041B8DF84C
:1045F000001000208DF80100EA46012003E059F880
:1046000004AB4FF0FF3061074FF0000102D40DE022
:1046100008F101018846B9420FDA8045F8DB1AF843
:1046200008100029F4D108E008F101018846814210
:10463000FADB1AF808100029F6D105985B46A0EBC2
:10464000080721463846179A00F094FA284400EBF0
:10465000080507E04DE029E10DE01AF8010B5A4684
:1046600017999047B8F10108F7D25B4621463846C2
:10467000179A13E142E00A220092C4F302524FF06B
:10468000000A022A08D059F804CB032A4FEAEC7139
:104690000AD00DE029E02AE009F1070121F0070224
:1046A000F2E802C1914609E00FFA8CFC4FEAEC7186
:1046B000042A03D14FFA8CFC4FEAEC71002907DA87
:1046C0000A460021DCF1000C61EB02012D2202E020
:1046D000220504D52B228DF80420012203E0E207F5
:1046E00001D02022F7E7904659E00A2102E010228B
:1046F0000DE010214FF0000A00910BE010224FF066
:10470000000A44F004040827009203E008224FF056
:10471000000A0092C4F30252022A05D059F804CBD1
:104720000021032A08D009E009F1070121F007025E
:10473000F2E802C1914605E01FFA8CFC042A01D17F
:104740000CF0FF0C4FF00008220728D5702806D087
:10475000009B83F0100353EA0A0305D00EE04022C9
:104760008DF80420012208E05CEA010206D0302224
:104770008DF804208DF8050002229046009B83F0FE
:10478000080353EA0A030AD15CEA010201D1620775
:1047900005D530228DF804204FF001087F1E5828DF
:1047A00004D034A003900EA802900DE036A0F9E7E3
:1047B00053466046009AFCF719F984460398825CD8
:1047C0000298401E029002705CEA0100F0D102984B
:1047D00006A9081A00F1200A600702D524F48034E3
:1047E00000E00127574502DDA7EB0A0000E00020AA
:1047F00000EB0A01009005984144401A0590E0033F
:1048000006D45B462146179A059800F0B3F9054493
:10481000002706E001A85A46C05D179990476D1C15
:104820007F1C4745F6DBE0030CD55B462146179A13
:10483000059800F09FF9054404E030205A46179986
:1048400090476D1C0099481E00900029F5DC08E097
:10485000029802995A460078491C0291179990478C
:104860006D1CBAF10001AAF1010AF1DC65E100005A
:104870000928010030313233343536373839616236
:1048800063646566000000003031323334353637FA
:1048900038394142434445460000000000F058F9D1
:1048A0000544761C307800287FF4ECAD19B028461A
:1048B000BDE8F08F620700D4062709F1070222F055
:1048C000070CFCE80223E14603F000485FEA080C0D
:1048D00002D00FF2702C0DE05FEA045C02D50FF2FB
:1048E000682C07E05FEAC47C02D00FF2602C01E084
:1048F000AFF2700C4FF0FF3823F00043CDF850C0FA
:1049000065280CD006DC452809D046281DD047284C
:104910003DD13DE0662818D067287ED138E00021DF
:10492000112F01DB112000E0781CCDE9000106A960
:104930000EA8FFF7D5FCDDE90F010E9A03910021C7
:10494000009207F1010A04914DE04FF000400097FA
:10495000CDE9011006A90EA8FFF7C2FCDDE90F02A0
:1049600003920E9B11990022DDF80CA00093049293
:1049700011B9791C00EB010AB7EB0A0004D4C0F1AD
:10498000FF3007F1010A0490AAEB0700019044E010
:10499000012F00DA01270021112F01DD112000E095
:1049A0003846CDE9000106A90EA8FFF799FCDDE91C
:1049B0000F010E9A0391002104910092BA4621073B
:1049C0000CD40399514500DA8A46BAF1010F05DD8E
:1049D000009AAAF10101515C302908D0B84202DAEC
:1049E00010F1040F06DA0121CDE9011015E0AAF15A
:1049F0000101E9E7002805DC049901440491AAEBD0
:104A0000000102E0411C514500DD8A460499401A2C
:104A1000401C01904FF000400290200704D4019800
:104A2000504501DBCDF8048000208DF84F0002983E
:104A30000DF14F07B0F1004F25D02B200E900298BA
:104A40004FF0020800280CDA404202902D200E9010
:104A500007E00A210298FBF7B3FF3031029007F814
:104A6000011DB8F10001A8F10108F2DC029800284C
:104A7000EFD1791E0E980870307800F0200040F0D9
:104A8000450007F8020D12A8C01B00F10708149892
:104A9000007800B1012000EB0A01019801EBE07100
:104AA00005984144401A401E0590E00306D45B4639
:104AB0002146179A059800F05DF80544149800788F
:104AC00018B15A46179990476D1CE00324D55B46F0
:104AD0002146179A059800F04DF805441CE004980B
:104AE000002807DBDDE90301884203DD0098405C14
:104AF000179901E0179930205A469047049805F11C
:104B00000105401C04900198401E019004D12E2004
:104B10005A46179990476D1CBAF10001AAF1010A93
:104B2000DDDC05E017F8010B5A46179990476D1C1C
:104B3000B8F10001A8F10108F4DC5B462146179AA0
:104B40000598ABE62D0000002B00000020000000BF
:104B50002DE9F041044600251E461746880404D47A
:104B600005E039462020B0476D1C641EF9D5284663
:104B7000BDE8F0812DE9F041044600251E4690462F
:104B8000C80301D5302700E02027880404D505E0BC
:104B900041463846B0476D1C641EF9D52846BDE82D
:104BA000F0814A68002A06D00A68531C0B60107016
:104BB0004868401E486070470A68531C0B601070BC
:104BC0007047014609B1086808B90020704719B15B
:104BD000D1E90120904201D30846F7E702E0886856
:104BE000401C886041B1D1E90120904204D28A681A
:104BF0000868805C2028F2DDD1E90120904202D1D2
:104C00008868401E88600846E0E7000070B50446EA
:104C1000002522E02568A08900F4807020B9A068F2
:104C200010B1A068FFF7F2FFA08900F4807028B9E6
:104C3000206918B10A4A206951688847A08900F4A0
:104C4000007028B9206A18B1054A206A516888475F
:104C500003484168204688472C46002CDAD170BDB5
:104C60002C00002070B504460D460022294620463F
:104C700000F0D5F870BD70B504462820216888473B
:104C800005461DB128212846FBF76BFA284670BD62
:104C900010B5044600221146204600F06BF810BD06
:104CA0002DE9F0478AB004460E46154698461C2169
:104CB00003A8FBF756FA002700202C49086048603B
:104CC00004B106B932E00394049600200590284A06
:104CD00007CA07AB07C32648FFF7CDFF074607B94A
:104CE00024E003A800F094FD8246FFF76AFF8146A6
:104CF0004946384600F0B8FC00B917E0B8F1000F9B
:104D00000BD003A8FFF75DFFDDE90410884203D252
:104D100005990398405C00B108E01DB1059903981E
:104D20000844286038460AB0BDE8F08717B1384615
:104D3000FFF76CFFC4B1019400200290DDE904107C
:104D4000884202D20598029004E0049810B10498B9
:104D5000401E02901DB1DDE90101084428600348AE
:104D6000DDE9011206C000BF0020DCE724000020BE
:104D70002C0000202DE9F04104460D46164614B9DA
:104D80000020BDE8F0812046FBF712FA471C3346AD
:104D90002A4639462046FFF783FFF2E770B50446FE
:104DA0000D4604B10DB9012070BDAC4201D1002007
:104DB000FAE705E0207808B90020F5E7641C6D1CCF
:104DC0002078FBF7AFF906462878FBF7ABF9864267
:104DD000F0D02078FBF7A6F906462878FBF7A2F971
:104DE000301AE1E7F0B502463125FF20002311E03B
:104DF00012F8016B7040002409E000F080061EB13B
:104E0000312686EA400600E04600F0B2641C082C19
:104E1000F3DB5B1C8B42EBDBF0BD2E2070472DE9F2
:104E2000F04105460E461746002405B116B900208C
:104E3000BDE8F081AC685FB100E024688CB1206A05
:104E400078B13046216AFBF7BAF90028F5D108E0BD
:104E500000E024682CB13046216AFFF79FFF00284C
:104E6000F7D10CB1206A08B90020E1E72046DFE75E
:104E70002DE9F0410B3020F00706104D19E02068B5
:104E8000B04215D3B0420AD9871B201DD4F8048044
:104E9000FBF74EF9A019C0E90078286004E06068CB
:104EA0002860201DFBF744F9201D2660BDE8F08135
:104EB000251D2C68002CE2D10020F7E738000020E7
:104EC000A6B00025714800682590002600200B90B0
:104ED0000A908246FDF7B8F9FCF7E2FD03E04FF4D3
:104EE000FA70FCF767FDFCF7F9F80028F7D10F20FE
:104EF000FCF7FEFC3220FDF72BFD012125A8FCF775
:104F0000C1FC40F642710620FDF78CFB00200690A4
:104F100007900890099006E05DA16448FFF70EF93C
:104F20000A20FCF747FD06A8FDF7C8FF0028F3D1CB
:104F3000AAE0701C80B20646B0F5E17F0ADB06A845
:104F4000FCF702FA0026FCF775FD5246DDE90A017E
:104F5000FEF766FE962096FBF0F100FB116000283C
:104F60005BD101215248FCF7ADFF81460BA90AA88D
:104F7000FCF7BAFF0A210D20FDF744F88346584696
:104F8000FBF793FC00224B4BCDE90201FBF71EFC23
:104F90000022494BCDE90401FBF7A6FB0746FBF7CE
:104FA00091FC824653465A4644A14048FFF7C6F852
:104FB0000B98FBF7A6FC074688460A98FBF7A1FC6E
:104FC00002460B46CDE90078CDE904013FA1374800
:104FD000FFF7B4F80B98FBF794FCCDE904010A98AD
:104FE000FBF78FFC07468846DDE90401CDE9007830
:104FF000CDE90201B9F1000F01D1012000E000204C
:1050000002463A490CA8FFF7D7F80CA92598FCF7F7
:10501000E3F9FCF70FFDFCF7BDFE0020FCF718FDDF
:10502000054615B12846FCF7FDF93148006805280A
:105030001ED12F482FA102681C48FFF77FF8FCF70C
:10504000A9FEFCF72DFDFCF7A5FE03E04FF4FA7076
:10505000FCF7B0FCFCF742F80028F7D12D20FCF754
:1050600047FC012125A8FCF70DFC00202049086021
:10507000FEF77CFE0446012C03D1FDF78BFCFEF706
:1050800087FC0520FCF796FC53E7000094590008C4
:105090004D5154545F5061636B657450696E672065
:1050A0004661696C64210D0A00000000003801406F
:1050B0000010014000FEAF4000408F404144432DAE
:1050C0002D25645F6C782D2D25640000CEC2B6C8F6
:1050D0002D2D252E3266A1E62C20CAAAB6C82D2D6C
:1050E0002525252E32660D0A00000000946D00086B
:1050F0001800002069643D2564202C73746172746B
:10510000696E67207265636F6E6E6563740D0A0069
:105110002DE9F04180460C4600250027E068B0F5F7
:105120007A7F02D30020BDE8F081E068401CE06097
:10513000A1682068405C5B2800D05FE0A068401C4C
:10514000A0602046FFF73DFD4CB1D4E90110884234
:1051500005D2A1682068405C5D2800D13FE01CB109
:10516000D4E90110884203D3A068401EA06045E046
:10517000A068401EA06000BF04F11000FFF77BFD97
:10518000064606B93AE015B93546374602E03E60B4
:1051900077603746A068401CA0602046FFF711FDED
:1051A0002146384600F060FA00B927E02046FFF7B4
:1051B00008FD44B1D4E90110884204D2A1682068F6
:1051C000405C2C28D8D044B1D4E90110884204D2E4
:1051D000A1682068405C5D2800D00FE000BFE06857
:1051E000401EE06005B16F602020C8F80C00C8F8D0
:1051F0000850A068401CA060012094E715B1284623
:10520000FFF704FD00208EE702460023002100BFC7
:1052100023E0505C302806DB505C392803DC505C0E
:105220003038034415E0505C412806DB505C4628CA
:1052300003DC505C373803440BE0505C612806DB2C
:10524000505C662803DC505C5738034401E00020C2
:105250007047032900D21B01491C0429D9D31846E1
:10526000F6E700002DE9F04391B080460C4600BF00
:1052700000201090FFF7D1FD814600250CB1206879
:1052800018B9002011B0BDE8F08300253CE0A1680A
:1052900020680844405D342820D00ADCA0F12B00AF
:1052A00009282ED2DFE800F0202D212A2D1617180C
:1052B0001900382816D006DC352810D036280FD033
:1052C00037281ED10DE039280DD045280FD065288C
:1052D00017D10BE000BF00BF00BF00BF00BF00BF81
:1052E00000BF00BF00BF00BF00BF00BF00BFA1687C
:1052F00020680844405D0DF8050003E00DF80590B6
:1053000000E00AE000BF6D1C3F2D05D224B1A0686B
:10531000284461688842BAD300BF00200DF8050018
:1053200010A9684600F092FA06460F4668461099A2
:10533000884201D10020A5E7C8E90667144A154B49
:1053400030463946FBF708FB04D86FF00040C8F838
:10535000140011E00022104B30463946FBF7E4FA06
:1053600004D84FF00040C8F8140005E03046394634
:10537000FBF7A8FAC8F814000820C8F80C00A068C9
:105380006A461099891A0844A06001207AE7000053
:105390000000C0FFFFFFDF410000E0C12DE9F04148
:1053A00080460C4600260025E068B0F57A7F02D3DF
:1053B0000020BDE8F081E068401CE06044B1D4E921
:1053C0000110884204D2A1682068405C7B2800D08C
:1053D0007DE0A068401CA0602046FFF7F2FB4CB1C6
:1053E000D4E90110884205D2A1682068405C7D287C
:1053F00000D15DE01CB1D4E90110884203D3A0685C
:10540000401EA06063E0A068401EA06000BF04F1E1
:105410001000FFF730FC074607B958E016B93E46C2
:105420003D4602E02F607D603D46A068401CA060C4
:105430002046FFF7C6FB2146284600F04EF800B98B
:1054400045E02046FFF7BDFB28692862002028615F
:1054500044B1D4E90110884204D2A1682068405CBC
:105460003A2800D033E0A068401CA0602046FFF737
:10547000A8FB2146284600F0F7F800B927E02046AF
:10548000FFF79FFB44B1D4E90110884204D2A16820
:105490002068405C2C28BAD044B1D4E9011088427D
:1054A00004D2A1682068405C7D2800D00FE000BFD6
:1054B000E068401EE06006B175604020C8F80C004E
:1054C000C8F80860A068401CA060012071E716B110
:1054D0003046FFF79BFB00206BE72DE9F84F804635
:1054E0000C46A16820680844461CA168206808444E
:1054F000451C002000900027A1682068405C2228FD
:1055000000D0A6E04FF0000AD1460DE028785C28D4
:1055100009D1681C2168401A6168884200D398E06C
:1055200009F101096D1C6D1C2068281A6168884208
:1055300002D228782228E9D12068281A6168884296
:1055400002D22878222800D083E0A168206808448D
:10555000281AA0EB090A0AF10100216988470746C9
:1055600007B976E0009761E030785C2807D016F83C
:10557000010B009908700098401C009056E04FF015
:105580000209A81B012800DA63E07078662819D0A8
:1055900008DC222832D02F2832D05C282FD0622875
:1055A00040D108E06E2814D0722819D074281ED07B
:1055B000752837D12BE00820009908700098401C0E
:1055C000009030E00C20009908700098401C00907A
:1055D00029E00A20009908700098401C009022E001
:1055E0000D20009908700098401C00901BE00920D5
:1055F000009908700098401C009014E000BF00BFA4
:105600007078009908700098401C00900BE06A4682
:105610002946304600F028F98146B9F1000F00D143
:1056200017E000E015E000BF4E4400BFAE429BD340
:105630000020009908701020C8F80C00C8F81070FD
:105640002068281AA060A068401CA0600120BDE866
:10565000F88F17B138466169884716B12068301A4B
:10566000A0600020F3E7000070B505460C460CB1C1
:10567000206808B9002070BD9CB1A068001D616859
:1056800088420ED8A2682168881804223FA1FAF740
:10569000B8FD30B90420E860A068001DA0600120BA
:1056A000E9E79CB1A068401D616888420ED8A268F5
:1056B00021688818052237A1FAF7A3FD30B9012027
:1056C000E860A068401DA0600120D4E7ACB1A068EC
:1056D000001D6168884210D8A268216888180422D9
:1056E0002EA1FAF78EFD40B90220E8600120686122
:1056F000A068001DA0600120BDE76CB1D4E90110D5
:10570000884209D2A1682068405C222804D1214641
:105710002846FFF7E2FEAEE7BCB1D4E901108842AB
:1057200013D2A1682068405C2D2809D0A1682068A8
:10573000405C302809DBA1682068405C392804DC23
:1057400021462846FFF78EFD95E76CB1D4E901109C
:10575000884209D2A1682068405C5B2804D12146B8
:105760002846FFF7D5FC86E76CB1D4E901108842E2
:1057700009D2A1682068405C7B2804D121462846D4
:10578000FFF70CFE77E7002075E700006E756C6C84
:105790000000000066616C7365000000747275653E
:1057A000000000002DE9F04704008A4616D054F8A6
:1057B000047CD4F800903E1F564500D9564620463A
:1057C000FEF728FD05468846324621465046FFF73B
:1057D0004FFB40B1C0F80090BDE8F087BDE8F0474E
:1057E0000846FEF745BD44E9017955B129686A18B4
:1057F000211F8A4202D9611B091F2960C5F8048054
:10580000EAE7024AC2F80080E6E70000380000201C
:1058100010B504461CB1206808B1A06808B100208A
:1058200010BD7CB1A068001D616888420AD2A268E0
:1058300021688818032204A1FAF7E3FC10B9A068D4
:10584000C01CA0602046EBE7EFBBBF0000B583B0F3
:105850000A460021CDE9001101466846FBF763F9CD
:10586000DDE9000103B000BD2DE9FF5F80468946F8
:10587000154600240026C24600200390834602906D
:105880000190A9EB0A00062800DA81E00AF1020083
:10589000FFF7BAFC0646B6F55C4F03D3B6F5604F8A
:1058A00000D275E0B6F5584F29D3B6F55C4F26D235
:1058B0000AF10607002000900C200290A9EB0700D7
:1058C000062800DA64E038785C2802D178787528F8
:1058D00000D05DE0B81CFFF797FC00900098B0F591
:1058E0005C4F03D30098B0F5604F00D350E0C6F38F
:1058F0000901009861F39F2000F5803402E0062042
:1059000002903446802C02D20120039018E0B4F5B6
:10591000006F04D202200390C020019010E0B4F583
:10592000803F04D203200390E020019008E0B4F50A
:10593000881F04D204200390F020019000E027E0AB
:105940000398401E00F0FF0B0BE004F0BF0040F096
:105950008000296801F80B00A409ABF1010000F0F8
:10596000FF0BBBF1000FF0DC0398012804DD019868
:1059700020432968087003E004F07F00296808705C
:105980002968039808442860029804B0BDE8F09F95
:105990000020FAE7686D0008000000000000000029
:1059A0000000000000000000001010101010101087
:1059B000101000001010000000006C6C2424000087
:1059C00000000100000000000024242424FE4848B8
:1059D0004848FC909090900000103C5492905038B1
:1059E00014121292547810000000225C94A84810FF
:1059F00010242A5254880000000030484850206E7D
:105A000054948C888A74000000003030101000001C
:105A100000000000000000000004081010202020FA
:105A200020202010100804000080402020101010BA
:105A3000101010202040800000000000105438108A
:105A4000385410000000000000000010101010FE7C
:105A50001010101000000000000000000000000006
:105A6000000000001010200000000000000000FEF8
:105A70000000000000000000000000000000000026
:105A800000000000101000000000040408081010BE
:105A900020204040808000000000384482828282C2
:105AA00082828282443800000000107010101010B2
:105AB00010101010107C000000003844828204088E
:105AC0001020408284FC0000000038448202043828
:105AD00004020282443800000000040C1414242440
